S01C00005072696E745F4C6561726E5F496E5F44657074682E7372656340
S11300000C942A000C9447000C9447000C9447006D
S11300100C9447000C9447000C9447000C94470040
S11300200C9447000C9447000C9447000C94470030
S11300300C9447000C9447000C9447000C94470020
S11300400C9447000C9447000C9447000C94470010
S11300500C94470011241FBECFE5D8E0DEBFCDBF0E
S113006010E0A0E6B0E0E0E8F2E002C005900D92F6
S1130070A037B107D9F720E0A0E7B0E001C01D9296
S1130080A137B207E1F70E9435010C943E010C94AC
S1130090000088B3886088BB2FE788E391E0215093
S11300A080409040E1F700C0000088B3877F88BBA0
S11300B00895CF93C82F88B3897F88BB8BB38F7083
S11300C09C2F907F892B8BBB0E9449008FE39CE976
S11300D00197F1F700C000002BB330E1C39FC001CA
S11300E01124922F9F70892B8BBB0E944900CF91C2
S11300F008950F931F93CF93DF93EC018B01019726
S113010049F477233CF06031710524F480E8860FCC
S11301100E945900229749F411233CF00031110543
S113012024F480EC800F0E945900DF91CF911F913D
S11301300F91089581E00E9459000895CF93C82F2C
S11301408BB38F709C2F907F892B8BBB88B382607D
S113015088BB88B38B7F88BB0E9449002BB330E1F6
S1130160C39FC0011124922F9F70892B8BBB88B32E
S1130170826088BB88B38B7F88BB0E944900CF9183
S113018008950F931F93CF93DF938C01C0E0D0E0C9
S11301901CC021960F5F1F4F0E949E00C031D105E5
S11301A039F460E070E082E090E00E9479000DC0D4
S11301B0C032D10551F40E949A0060E070E081E001
S11301C090E00E947900C0E0D0E0F80180818111C4
S11301D0E0CFDF91CF911F910F910895809170002E
S11301E089600E9459008091700081608093700042
S11301F00895809170008A600E9459008091700077
S11302008260809370000895809170008C600E94D9
S113021059008091700084608093700008958FE38A
S11302209CE90197F1F700C0000087B38E6087BB9B
S113023088B3817F88BB8FEF8ABB8FE39CE90197EA
S1130240F1F700C0000082E00E94590088E20E9499
S113025059000E949A0086E00E9459000E940401FD
S11302600E94EE000E94F90008950E940F0180E6AA
S113027090E00E94C10080E090E00895F894FFCFE0
S11302804C6561726E20496E20446570746800008C
S9030000FC
