S01A000041746D65676133325F496E746572727570742E737265632A
S11300000C942A000C9449000C9468000C9487000A
S11300100C9434000C9434000C9434000C9434008C
S11300200C9434000C9434000C9434000C9434007C
S11300300C9434000C9434000C9434000C9434006C
S11300400C9434000C9434000C9434000C9434005C
S11300500C94340011241FBECFE5D8E0DEBFCDBF21
S11300600E9436000C94A6000C94000085B78160B1
S113007085BF85B78C6085BF84B78F7B84BF8BB702
S1130080806E8BBF8FB780688FBF81B3806E81BB5A
S1130090FFCF1F920F920FB60F9211242F938F93BD
S11300A09F9382B3806282BB2FEF89E698E121504F
S11300B080409040E1F700C0000082B38F7D82BB96
S11300C09F918F912F910F900FBE0F901F901895B5
S11300D01F920F920FB60F9211242F938F939F9319
S11300E082B3806482BB2FEF89E698E1215080407F
S11300F09040E1F700C0000082B38F7B82BB9F91E8
S11301008F912F910F900FBE0F901F9018951F92F3
S11301100F920FB60F9211242F938F939F9382B354
S1130120806882BB2FEF89E698E12150804090409F
S1130130E1F700C0000082B38F7782BB9F918F915B
S11301402F910F900FBE0F901F901895F894FFCF2A
S9030000FC
