:100000000C942A000C9434000C9434000C943400AA
:100010000C9434000C9434000C9434000C94340090
:100020000C9434000C9434000C9434000C94340080
:100030000C9434000C9434000C9434000C94340070
:100040000C9434000C9434000C9434000C94340060
:100050000C94340011241FBECFE5D8E0DEBFCDBF25
:100060000E9459000C94A1000C940000CF92DF92E2
:10007000EF92FF920F931F936B017C01E0E0F0E0A1
:1000800001C03196A0E4BFE1A70196010E9487005C
:100090008F010F2E000C220B330B061717072807B2
:1000A000390778F31F910F91FF90EF90DF90CF9079
:1000B000089580EF81BBC5E0D0E0809B0FC0C830C1
:1000C000D10561F022B381E090E00C2E02C0880FD0
:1000D000991F0A94E2F7822B82BB2196819B10C064
:1000E000C530D10569F0219722B381E090E00C2E54
:1000F00002C0880F991F0A94E2F78095822382BB81
:1001000060E177E280E090E00E943600D6CF0E9466
:100110009200A59F900DB49F900DA49F800D911DFE
:1001200011240895A29FB001B39FC001A39F700D39
:10013000811D1124911DB29F700D811D1124911DEF
:060140000895F894FFCFC2
:00000001FF
