:020000040800F2
:10000000002800204902000899020008990200080F
:1000100099020008990200089902000800000000F7
:10002000000000000000000000000000990200082D
:1000300099020008000000009902000899020008D7
:100040009902000899020008990200089902000824
:1000500099020008990200081D0200089902000890
:100060009902000899020008990200089902000804
:1000700099020008990200089902000899020008F4
:1000800099020008990200089902000899020008E4
:1000900099020008990200089902000899020008D4
:1000A00099020008990200089902000899020008C4
:1000B00099020008990200089902000899020008B4
:1000C00099020008990200089902000899020008A4
:1000D0009902000899020008990200089902000894
:1000E0009902000899020008000000009902000827
:1000F0009902000899020008990200089902000874
:100100009902000899020008990200089902000863
:100110009902000899020008990200089902000853
:100120009902000899020008990200089902000843
:1001300010B5054C237833B9044B13B10448AFF321
:1001400000800123237010BD00000020000000008B
:10015000E402000808B5034B1BB103490348AFF3A1
:10016000008008BD0000000004000020E402000838
:1001700080B400AF074B1B68064A43F001031360CD
:10018000044B1B68034A43F00403136000BFBD46E1
:1001900080BC70471810024080B400AF0A4B1B6847
:1001A000094A23F470031360074B1B68064A43F4A3
:1001B00000131360054B1B68044A43F004031360EB
:1001C00000BFBD4680BC70470408014000080140E4
:1001D00080B500AFFFF7CCFFFFF7DEFF0B4B0B4AFC
:1001E0001B6813600A4B1B68094A43F00103136044
:1001F000084B1B68074A43F001031360064B1B685A
:10020000054A43F040031360FEE700BF08000140C9
:10021000000401400804014000E100E080B400AFA8
:10022000074B1B68064A83F400531360054B1B6899
:10023000044A43F00103136000BFBD4680BC704711
:100240000C080140140401400D488546AFF30080BE
:100250000C480D490D4A002302E0D458C450043321
:10026000C4188C42F9D30A4A0A4C002301E01360F7
:100270000432A242FBD300F011F8FFF7A9FFFEE71A
:1002800000280020000000200000002004030008D7
:10029000000000201C000020FEE7000070B50025D3
:1002A0000C4E0D4CA41BA410A54209D100F01AF865
:1002B00000250A4E0A4CA41BA410A54205D170BD0E
:1002C00056F8253098470135EEE756F8253098471F
:1002D0000135F2E7FC020008FC020008FC020008FD
:1002E00000030008F8B500BFF8BC08BC9E46704784
:0C02F000F8B500BFF8BC08BC9E46704783
:0402FC0055010008A0
:0403000031010008BF
:0400000508000249A4
:00000001FF
