S01B0000556E6974375F53656374696F6E315F4C6162332E737265632C
S11300000C942A000C9434000C9434000C943400A6
S11300100C9434000C9434000C9434000C9434008C
S11300200C9434000C9434000C9434000C9434007C
S11300300C9434000C9434000C9434000C9434006C
S11300400C9434000C9434000C9434000C9434005C
S11300500C94340011241FBECFE5D8E0DEBFCDBF21
S11300600E9459000C948A000C940000CF92DF92F5
S1130070EF92FF920F931F936B017C01E0E0F0E09D
S113008001C03196A0E4BFE1A70196010E9470006F
S11300908F010F2E000C220B330B061717072807AE
S11300A0390778F31F910F91FF90EF90DF90CF9075
S11300B0089580EF81BB809BFECF82B3806182BBB9
S11300C068EE73E080E090E00E94360082B38F7E99
S11300D082BB68EE73E080E090E00E943600EBCFD4
S11300E00E947B00A59F900DB49F900DA49F800D4E
S11300F0911D11240895A29FB001B39FC001A39F35
S1130100700D811D1124911DB29F700D811D11244C
S10B0110911D0895F894FFCF3E
S9030000FC
