:020000040800F2
:1000000000280020DD0600082D0700082D07000845
:100010002D0700082D0700082D070008000000002C
:100020000000000000000000000000002D07000894
:100030002D070008000000002D0700082D0700080C
:100040002D0700082D0700082D0700082D070008C0
:100050002D0700082D070008590B00087D0B00082C
:10006000A10B0008C50B0008E90B00082D070008CC
:100070002D0700082D0700082D0700082D07000890
:100080002D0700082D0700082D0700082D07000880
:100090002D0700082D0700082D0700080D0C00088B
:1000A0002D0700082D0700082D0700082D07000860
:1000B0002D0700082D0700082D0700082D07000850
:1000C0002D0700082D0700082D0700082D07000840
:1000D0002D0700082D0700082D0700082D07000830
:1000E000B50C00082D070008000000002D070008CF
:1000F0002D0700082D0700082D0700082D07000810
:100100002D0700082D0700082D0700082D070008FF
:100110002D0700082D0700082D0700082D070008EF
:100120002D0700082D0700082D0700082D070008DF
:1001300010B5054C237833B9044B13B10448AFF321
:1001400000800123237010BD00000020000000008B
:10015000D00F000808B5034B1BB103490348AFF3A8
:10016000008008BD0000000004000020D00F00083F
:1001700080B485B000AF78600023FB600BE0002303
:10018000BB6002E0BB680133BB60BB68FE2BF9D9E2
:10019000FB680133FB60FA687B689A42EFD300BFCB
:1001A0001437BD4680BC704780B582B000AF0346AF
:1001B000FB71FB79002B68D05E4B01221A805D4BEE
:1001C00004229A705B4B0122DA705A495A4800F0B7
:1001D00036FE584B02221A80564B04229A70554B19
:1001E0000122DA705349544800F029FE514B042291
:1001F0001A80504B04229A704E4B0122DA704D49FE
:100200004D4800F01CFE4B4B08221A80494B04223B
:100210009A70484B0122DA704649474800F00FFEB9
:10022000444B10221A80434B04229A70414B012206
:10023000DA704049404800F002FE3E4B20221A800E
:100240003C4B04229A703B4B0122DA7039493A4800
:1002500000F0F5FD374B40221A80364B04229A708D
:10026000344B0122DA703349334800F0E8FD314B5A
:1002700080221A802F4B04229A702E4B0122DA70B2
:100280002C492D4800F0DBFD4FE02A4B01221A805B
:10029000284B01229A702749274800F0D0FD254BB2
:1002A00002221A80234B01229A702249224800F030
:1002B000C6FD204B04221A801E4B01229A701D4954
:1002C0001D4800F0BCFD1B4B08221A80194B01226F
:1002D0009A701849184800F0B2FD164B10221A8087
:1002E000144B01229A701349134800F0A8FD114BDA
:1002F00020221A800F4B01229A700E490E4800F0FE
:100300009EFD0C4B40221A800A4B01229A7009492B
:10031000094800F094FD074B80221A80054B01220A
:100320009A700449044800F08AFD00BF0837BD46B2
:1003300080BD00BF240000200008014080B500AF50
:100340001420FFF715FF294B4FF480721A80274BBA
:1003500004229A70254B0122DA702449244800F0C7
:100360006EFD224B4FF400721A80204B04229A70CB
:100370001E4B0122DA701D491D4800F060FD1B4B29
:100380004FF480621A80194B04229A70174B012295
:10039000DA701649164800F052FD00224FF48071C1
:1003A000134800F0CBFD00224FF40071104800F01C
:1003B000C5FD00224FF480610D4800F0BFFD012013
:1003C000FFF7F2FE0F20FFF7D3FE382000F058F8B9
:1003D00000F04FF8062000F053F800F0F7F800F0B6
:1003E000C5F800F0DBF800BF80BD00BF240000208E
:1003F0000008014080B500AF01224FF4806107483A
:1004000000F09CFD3220FFF7B3FE00224FF4806124
:10041000024800F093FD00BF80BD00BF000801400E
:1004200080B582B000AF786039607B68012B0CD159
:100430003B68002B09DB3B680F2B06DC3B68DBB21B
:10044000803BDBB2184600F01BF87B68022B0CD116
:100450003B68002B09DB3B680F2B06DC3B68DBB2FB
:10046000403BDBB2184600F00BF800BF0837BD4632
:1004700080BD80B500AF012000F002F800BF80BD54
:1004800080B582B000AF0346FB71FB799BB2194681
:100490000B4800F06AFD00224FF40071084800F09C
:1004A0004DFD00224FF48071054800F047FD01200A
:1004B000FFF75EFEFFF79EFF00BF0837BD4680BD19
:1004C0000008014080B582B000AF0346FB71FB79A4
:1004D0009BB219460B4800F048FD01224FF4807191
:1004E000084800F02BFD00224FF40071054800F091
:1004F00025FD0120FFF73CFEFFF77CFF00BF08371A
:10050000BD4680BD0008014080B582B000AF786074
:1005100021E0154B1B680133134A13607B685A1C9A
:100520007A601B781846FFF7CDFF0F4B1B68102B26
:1005300004D100210220FFF773FF0CE00A4B1B6877
:10054000202B08D1FFF795FF00210120FFF768FF5E
:10055000054B00221A607B681B78002BD9D100BFA5
:100560000837BD4680BD00BF1C00002080B500AF2D
:10057000094B1B78DBB243F00903DBB21846FFF7E7
:100580007FFF054B1B78DBB243F00103DAB2024B6D
:100590001A7000BF80BD00BF2000002080B500AFF2
:1005A000094B1B78DBB243F00A03DBB21846FFF7B6
:1005B00067FF054B1B78DBB243F00203DAB2024B54
:1005C0001A7000BF80BD00BF2000002080B500AFC2
:1005D000094B1B78DBB243F00C03DBB21846FFF784
:1005E0004FFF054B1B78DBB243F00403DAB2024B3A
:1005F0001A7000BF80BD00BF2000002080B400AF93
:100600000A4B9B69094A43F004039361074B9B69BA
:10061000064A43F008039361044B9B69034A43F085
:100620000103936100BFBD4680BC704700100240CB
:1006300080B485B000AF78600023FB600BE000233E
:10064000BB6002E0BB680133BB60BB68FE2BF9D91D
:10065000FB680133FB60FA687B689A42EFD300BF06
:100660001437BD4680BC704780B500AF054B0122F2
:100670001A700548FFF748FF4FF47A70FFF7D8FF6C
:1006800000BF80BD21000020E80F000880B586B0C3
:1006900000AFFFF7B3FFFFF751FEFFF7EAFE0C4A8A
:1006A0003B1D07CA83E8070000233B74094B7B61AD
:1006B00001237B743B1D184600F042FA064B1B7861
:1006C000002BFBD0FFF7D5FE034B00221A70F5E795
:1006D0000410000869060008210000200D48854626
:1006E000AFF300800C480D490D4A002302E0D458B6
:1006F000C4500433C4188C42F9D30A4A0A4C00236C
:1007000001E013600432A242FBD300F03DFCFFF78E
:10071000BDFFFEE7002800200000002000000020B0
:10072000181000080000002064000020FEE7000010
:1007300080B483B000AF0346FB80FB88063B222BCE
:1007400079D801A252F823F0D5070008E307000882
:10075000F1070008FF0700080D0800083708000827
:10076000370800083708000837080008370800086D
:10077000370800083708000837080008370800085D
:100780003708000837080008370800081B08000869
:10079000370800083708000837080008370800083D
:1007A000370800083708000837080008370800082D
:1007B000370800083708000837080008370800081D
:1007C000370800083708000837080008370800080D
:1007D000290800081A4B1B68194A43F040031360AC
:1007E00029E0174B1B68164A43F08003136022E090
:1007F000134B1B68124A43F4807313601BE0104BC9
:100800001B680F4A43F40073136014E00C4B1B6821
:100810000B4A43F4806313600DE0094B1B68084AE0
:1008200043F40003136006E0064B1B68054A43F4DB
:100830008073136000BF00BF0C37BD4680BC70479B
:1008400000E100E004E100E080B483B000AF0346C3
:10085000FB80FB88063B222B79D801A252F823F0BB
:10086000ED080008FB08000809090008170900083E
:10087000250900084F0900084F0900084F09000822
:100880004F0900084F0900084F0900084F090008E8
:100890004F0900084F0900084F0900084F090008D8
:1008A0004F090008330900084F0900084F090008E4
:1008B0004F0900084F0900084F0900084F090008B8
:1008C0004F0900084F0900084F0900084F090008A8
:1008D0004F0900084F0900084F0900084F09000898
:1008E0004F0900084F090008410900081A4B1B680E
:1008F000194A43F04003136029E0174B1B68164A5E
:1009000043F08003136022E0134B1B68124A43F448
:10091000807313601BE0104B1B680F4A43F4007395
:10092000136014E00C4B1B680B4A43F480631360A4
:100930000DE0094B1B68084A43F40003136006E00E
:10094000064B1B68054A43F48073136000BF00BF69
:100950000C37BD4680BC704780E100E084E100E0D8
:1009600080B584B000AF78607B681B883B81012331
:10097000BB727B685B6807F108021146184600F0FD
:100980005EFA7B681B899B089BB2FB737B681B89A3
:10099000DBB203F00303DBB29B00BB73614AFB7B5A
:1009A000023352F82320BB7B0F2101FA03F3DB4310
:1009B00018465C49FB7B0240023341F82320594A28
:1009C000FB7B023352F823207B685B6856498B42DD
:1009D00016D07B685B6855498B420FD07B685B689B
:1009E00053498B4208D07B685B6852498B4201D1E6
:1009F000032306E0002304E0022302E0012300E0D9
:100A00000023B97B8B4018464649FB7B02430233E7
:100A100041F82320484B9B687A68128911460122CD
:100A20008A40D2431146444A0B409360424BDB68F4
:100A30007A681289114601228A40D24311463E4A01
:100A40000B40D3607B681B7B002B0BD13A4B9B6820
:100A50007A681289114601228A401146364A0B43B0
:100A6000936029E07B681B7B012B0BD1324BDB6849
:100A70007A681289114601228A4011462E4A0B4398
:100A8000D36019E07B681B7B022B15D12A4B9B6836
:100A90007A681289114601228A401146264A0B4380
:100AA0009360254BDB687A681289114601228A40DF
:100AB0001146214A0B43D3607B681B8919467B682A
:100AC0001B691E4A42F821307B685B7B012B10D1E9
:100AD000194B1B687A681289114601228A40114617
:100AE000154A0B4313607B685B891846FFF720FEAD
:100AF00014E07B685B7B002B10D10F4B1B687A687E
:100B00001289114601228A40D24311460A4A0B40FB
:100B100013607B685B891846FFF796FE00BF1037AD
:100B2000BD4680BD0000014000080140000C0140AE
:100B30000010014000140140000401402800002082
:100B400080B582B000AF78607868FFF709FF00BF1A
:100B50000837BD4680BD000080B500AF054B5B691E
:100B6000044A43F001035361034B1B68984700BFDD
:100B700080BD00BF000401402800002080B500AF08
:100B8000054B5B69044A43F002035361034B5B6806
:100B9000984700BF80BD00BF00040140280000202E
:100BA00080B500AF054B5B69044A43F00403536111
:100BB000034B9B68984700BF80BD00BF0004014005
:100BC0002800002080B500AF054B5B69044A43F064
:100BD00008035361034BDB68984700BF80BD00BF2B
:100BE000000401402800002080B500AF054B5B6980
:100BF000044A43F010035361034B1B69984700BF3D
:100C000080BD00BF000401402800002080B500AF77
:100C1000264B5B6903F02003002B08D0234B5B6954
:100C2000224A43F020035361214B5B6998471F4BD5
:100C30005B6903F04003002B08D01C4B5B691B4A27
:100C400043F0400353611A4B9B699847174B5B690C
:100C500003F08003002B08D0144B5B69134A43F068
:100C600080035361124BDB699847104B5B6903F4B7
:100C70008073002B08D00D4B5B690C4A43F48073E2
:100C800053610B4B1B6A9847084B5B6903F4007375
:100C9000002B08D0054B5B69044A43F40073536191
:100CA000034B5B6A984700BF80BD00BF0004014052
:100CB0002800002080B500AF2D4B5B6903F48063F2
:100CC000002B08D02A4B5B69294A43F480635361A7
:100CD000284B9B6A9847264B5B6903F40063002B03
:100CE00008D0234B5B69224A43F400635361214BD4
:100CF000DB6A98471E4B5B6903F48053002B08D0D6
:100D00001B4B5B691A4A43F480535361194B1B6BAD
:100D10009847174B5B6903F40053002B08D0144B22
:100D20005B69134A43F400535361124B5B6B984762
:100D30000F4B5B6903F48043002B08D00C4B5B69BD
:100D40000B4A43F4804353610A4B9B6B9847084B13
:100D50005B6903F40043002B08D0054B5B69044A30
:100D600043F400435361034BDB6B984700BF80BDE6
:100D7000000401402800002080B483B000AF034687
:100D8000FB80FB88802B42D0802B11DC082B36D0D7
:100D9000082B06DC022B2ED0042B2ED0012B28D0C2
:100DA00047E0202B2FD0402B2FD0102B29D040E014
:100DB000B3F5006F33D0B3F5006F09DCB3F5007FF6
:100DC00029D0B3F5806F28D0B3F5807F21D030E0F3
:100DD000B3F5005F27D0B3F5005F03DCB3F5805FA8
:100DE0001FD026E0B3F5804F1FD0B3F5004F1ED0C3
:100DF0001FE000231EE004231CE008231AE00C235C
:100E000018E0102316E0142314E0182312E01C232A
:100E100010E000230EE004230CE008230AE00C237A
:100E200008E0102306E0142304E0182302E01C234A
:100E300000E0012318460C37BD4680BC704790B5D2
:100E400085B000AF786039600023BB600023FB737E
:100E50003B681B88FF2B01D87B6801E07B6804336B
:100E6000BB603B681B881846FFF786FF03461A469F
:100E70000F239340DA43BB681B681A40BB681A60B3
:100E80003B689B78042B0BD03B689B78052B07D0E5
:100E90003B689B78062B03D03B689B78072B0ED1D1
:100EA0003B689B78043B9B005AB23B68DB785BB2A3
:100EB00013435BB2DBB203F00F03FB732CE03B6820
:100EC0009B78002B03D03B689B78012B07D13B68B4
:100ED0009B789B00DBB203F00F03FB731CE03B68C5
:100EE0009B78012B02D10423FB7315E00823FB73CD
:100EF0003B689B78022B07D17B68DB683A681288D5
:100F00001A437B68DA6007E07B68DB683A6812881E
:100F1000D2431A407B68DA60FC7B3B681B8818462A
:100F2000FFF72AFF034604FA03F2BB681B681A4363
:100F3000BB681A6000BF1437BD4690BD80B483B053
:100F400000AF78600B467B8013467B707B78002B6C
:100F500003D07A887B681A6102E07A887B685A61DC
:100F600000BF0C37BD4680BC704780B483B000AF73
:100F700078600B467B807A887B68DA6000BF0C372C
:100F8000BD4680BC7047000070B500250C4E0D4C6E
:100F9000A41BA410A54209D100F01AF800250A4E9E
:100FA0000A4CA41BA410A54205D170BD56F82530EB
:100FB00098470135EEE756F8253098470135F2E7B6
:100FC000101000081010000810100008141000087D
:100FD000F8B500BFF8BC08BC9E467047F8B500BF26
:080FE000F8BC08BC9E467047F6
:100FE8004952512045585449392049732048617065
:100FF80070656E6564205F7C2D00000000020000B3
:08100800000C01400900170073
:04101000550100087E
:04101400310100089E
:04000005080006DD0C
:00000001FF
