S01B0000556E6974375F53656374696F6E315F6C6162312E737265630E
S11300000C942A000C9434000C9434000C943400A6
S11300100C9434000C9434000C9434000C9434008C
S11300200C9434000C9434000C9434000C9434007C
S11300300C9434000C9434000C9434000C9434006C
S11300400C9434000C9434000C9434000C9434005C
S11300500C94340011241FBECFE5D8E0DEBFCDBF21
S11300600E9459000C94A7000C940000CF92DF92D8
S1130070EF92FF920F931F936B017C01E0E0F0E09D
S113008001C03196A0E4BFE1A70196010E948D0052
S11300908F010F2E000C220B330B061717072807AE
S11300A0390778F31F910F91FF90EF90DF90CF9075
S11300B0089580EE81BB12BAC0E0D0E012C022B332
S11300C081E090E00C2E02C0880F991F0A94E2F799
S11300D0822B82BB68EE73E080E090E00E943600E1
S11300E02196C830D1055CF3C7E0D0E013C022B339
S11300F081E090E00C2E02C0880F991F0A94E2F769
S11301008095822382BB68EE73E080E090E00E94D9
S113011036002197DD235CF7CFCF0E949800A59F7E
S1130120900DB49F900DA49F800D911D11240895EE
S1130130A29FB001B39FC001A39F700D811D112424
S1130140911DB29F700D811D1124911D0895F89485
S1050150FFCFDB
S9030000FC
