:020000040800F2
:100000000028002091020008E1020008E102000837
:10001000E1020008E1020008E1020008000000001F
:10002000000000000000000000000000E1020008E5
:10003000E102000800000000E1020008E1020008FF
:10004000E1020008E1020008E1020008E102000804
:10005000E1020008E1020008E1020008E1020008F4
:10006000E1020008E1020008E1020008E1020008E4
:10007000E1020008E1020008E1020008E1020008D4
:10008000E1020008E1020008E1020008E1020008C4
:10009000E1020008E1020008E1020008E1020008B4
:1000A000E1020008E1020008E1020008E1020008A4
:1000B000E1020008E1020008E1020008E102000894
:1000C000E1020008E1020008E1020008E102000884
:1000D000E1020008E1020008E1020008E102000874
:1000E000E1020008E102000800000000E10200084F
:1000F000E1020008E1020008E1020008E102000854
:10010000E1020008E1020008E1020008E102000843
:10011000E1020008E1020008E1020008E102000833
:10012000E1020008E1020008E1020008E102000823
:1001300010B5054C237833B9044B13B10448AFF321
:1001400000800123237010BD00000020000000008B
:100150002C03000808B5034B1BB103490348AFF358
:10016000008008BD00000000040000202C030008EF
:1001700080B400AF074B1B68064A43F004031360CA
:10018000044B1B68034A43F00803136000BFBD46DD
:1001900080BC70471810024080B400AF164B00229C
:1001A0001A60164B00221A60134B1B68124A43F068
:1001B00040031360114B1B68104A43F48003136023
:1001C0000F4B1B680E4A23F0F00313600C4B1B68A7
:1001D0000B4A43F0100313600A4B1B68094A23F4CF
:1001E00070031360074B1B68064A43F480131360C7
:1001F00000BFBD4680BC70470008014004080140B4
:10020000000C0140040C014080B485B000AF786060
:100210000023FB6002E0FB680133FB60FA687B6847
:100220009A42F8D300BF1437BD4680BC7047000027
:1002300080B500AFFFF79CFFFFF7AEFF124B1B68C6
:1002400003F00203002B0CD1104B1B680F4A83F004
:100250000203136000BF0C4B1B6803F00203002B6A
:10026000F9D0094B1B685B0B03F00103012B05D18F
:10027000064B1B68054A83F4005313604FF47A70F1
:10028000FFF7C2FFDAE700BF080801400C0C01408D
:100290000D488546AFF300800C480D490D4A0023F8
:1002A00002E0D458C4500433C4188C42F9D30A4A2B
:1002B0000A4C002301E013600432A242FBD300F099
:1002C00011F8FFF7B5FFFEE700280020000000202E
:1002D000000000204C030008000000201C0000204B
:1002E000FEE7000070B500250C4E0D4CA41BA410B9
:1002F000A54209D100F01AF800250A4E0A4CA41BA9
:10030000A410A54205D170BD56F825309847013597
:10031000EEE756F8253098470135F2E74403000828
:10032000440300084403000848030008F8B500BF70
:10033000F8BC08BC9E467047F8B500BFF8BC08BCC6
:040340009E4670471E
:040344005501000857
:040348003101000877
:04000005080002915C
:00000001FF
