:100000000C942A000C9434000C9434000C943400AA
:100010000C9434000C9434000C9434000C94340090
:100020000C9434000C9434000C9434000C94340080
:100030000C9434000C9434000C9434000C94340070
:100040000C9434000C9434000C9434000C94340060
:100050000C94340011241FBECFE5D8E0DEBFCDBF25
:100060000E9459000C94AD000C940000CF92DF92D6
:10007000EF92FF920F931F936B017C01E0E0F0E0A1
:1000800001C03196A0EDB7E0A70196010E94930050
:100090008F010F2E000C220B330B061717072807B2
:1000A000390778F31F910F91FF90EF90DF90CF9079
:1000B00008958FEF84BB00E010E031C0CE0182953F
:1000C0009295907F9827807F9827876085BB61E015
:1000D00070E080E090E00E943600C8018295929521
:1000E000907F9827807F98278B6085BB61E070E0C8
:1000F00080E090E00E9436008FEFE81AF80A02C014
:10010000E12CF12C8AE0E816F104C4F2219602C039
:10011000C0E0D0E0CA30D1059CF30F5F1F4F0A301A
:100120001105B4F3C8CF0E949E00A59F900DB49F07
:10013000900DA49F800D911D11240895A29FB001E0
:10014000B39FC001A39F700D811D1124911DB29F0B
:0E015000700D811D1124911D0895F894FFCFAC
:00000001FF
