:020000040800F2
:1000000000280020A9010008F9010008F9010008F2
:10001000F9010008F9010008F901000800000000DA
:10002000000000000000000000000000F9010008CE
:10003000F901000800000000F9010008F9010008BA
:10004000F9010008F9010008F9010008F9010008A8
:10005000F9010008F9010008F9010008F901000898
:10006000F9010008F9010008F9010008F901000888
:10007000F9010008F9010008F9010008F901000878
:10008000F9010008F9010008F9010008F901000868
:10009000F9010008F9010008F9010008F901000858
:1000A000F9010008F9010008F9010008F901000848
:1000B000F9010008F9010008F9010008F901000838
:1000C000F9010008F9010008F9010008F901000828
:1000D000F9010008F9010008F9010008F901000818
:1000E000F9010008F901000800000000F90100080A
:1000F000F9010008F9010008F9010008F9010008F8
:10010000F9010008F9010008F9010008F9010008E7
:10011000F9010008F9010008F9010008F9010008D7
:10012000F9010008F9010008F9010008F9010008C7
:1001300010B5054C237833B9044B13B10448AFF321
:1001400000800123237010BD080000200000000083
:100150009002000808B5034B1BB103490348AFF3F5
:10016000008008BD000000000C0000209002000884
:1001700080B500AF094B1A68137843F0040313707D
:10018000074B1A681368022161F31753136005487F
:1001900000F033F80023184680BD00BF00000020A7
:1001A000040000200C0801400D488546AFF3008094
:1001B0000C480D490D4A002302E0D458C4500433C2
:1001C000C4188C42F9D30A4A0A4C002301E0136098
:1001D0000432A242FBD300F037F8FFF7C9FFFEE775
:1001E000002800200000002008000020B0020008C5
:1001F0000800002024000020FEE780B487B000AF94
:1002000078607B68FB60FA68138843F400531380BE
:1002100000237B6102E07B6901337B617B6941F2F2
:1002200087329342F7DDFA6813886FF34D331380FA
:1002300000233B6102E03B6901333B613B6941F2D2
:1002400087329342F7DDDEE770B500250C4E0D4C8A
:10025000A41BA410A54209D100F01AF800250A4EEB
:100260000A4CA41BA410A54205D170BD56F8253038
:1002700098470135EEE756F8253098470135F2E703
:10028000A8020008A8020008A8020008AC020008A2
:10029000F8B500BFF8BC08BC9E467047F8B500BF73
:0802A000F8BC08BC9E46704743
:0402A80055010008F4
:0402AC003101000814
:0802B00018100240040801408F
:04000005080001A945
:00000001FF
