:020000040800F2
:1000000000280020310A0008810A0008810A00083F
:10001000810A0008810A0008810A00080000000027
:10002000000000000000000000000000810A00083D
:10003000810A000800000000810A0008810A000807
:10004000810A0008810A0008810A0008810A000864
:10005000810A0008810A0008810A0008810A000854
:10006000810A0008810A0008810A0008810A000844
:10007000810A0008810A0008810A0008810A000834
:10008000810A0008810A0008810A0008810A000824
:10009000810A0008810A0008810A0008810A000814
:1000A000810A0008810A0008810A0008810A000804
:1000B000810A0008810A0008810A0008810A0008F4
:1000C000810A0008810A0008810A0008810A0008E4
:1000D000810A0008810A0008810A0008810A0008D4
:1000E000810A0008810A000800000000810A000857
:1000F000810A0008810A0008810A0008810A0008B4
:10010000810A0008810A0008810A0008810A0008A3
:10011000810A0008810A0008810A0008810A000893
:10012000810A0008810A0008810A0008810A000883
:1001300010B5054C237833B9044B13B10448AFF321
:1001400000800123237010BD20000020000000006B
:10015000080D000808B5034B1BB103490348AFF372
:10016000008008BD0000000024000020080D0008E9
:1001700080B485B000AF78600023FB600BE0002303
:10018000BB6002E0BB680133BB60BB68FE2BF9D9E2
:10019000FB680133FB60FA687B689A42EFD300BFCB
:1001A0001437BD4680BC704780B582B000AF0123D4
:1001B000BB800423BB710123FB713B1D19462648FC
:1001C00000F0C2FC0223BB800423BB710123FB713E
:1001D0003B1D1946204800F0B7FC0823BB800423D0
:1001E000BB710123FB713B1D19461B4800F0ACFCA1
:1001F0001023BB800423BB710123FB713B1D1946F7
:10020000154800F0A1FC2023BB800123BB713B1DDE
:100210001946114800F098FC4023BB800123BB71B4
:100220003B1D19460C4800F08FFC8023BB80012346
:10023000BB713B1D1946084800F086FC4FF48073E3
:10024000BB800123BB713B1D1946034800F07CFCB9
:1002500000BF0837BD4680BD000C014080B582B0AC
:1002600000AF00237B6055E02E4B1B88012219460E
:100270002D4800F0FFFC2B4B5B88012219462A48D1
:1002800000F0F8FC274B9B8801221946264800F015
:10029000F1FC244BDB8801221946234800F0EAFCDC
:1002A000204A7B6832F81330002219461E4800F0BD
:1002B000E1FC00233B6024E01C4A3B6832F8133029
:1002C0001946194800F0BFFC0346002B13D100BFAC
:1002D000164A3B6832F813301946134800F0B3FC55
:1002E0000346002BF4D0124A7B689B001A443B68FB
:1002F00013441B7812E00120FFF73AFF3B680133FB
:100300003B603B68032BD7DD0120FFF731FF7B68A3
:1003100001337B607B68032BA6DD41231846083739
:10032000BD4680BD10000020000C014018000020D8
:100330000000002080B485B000AF78600023FB602F
:100340000BE00023BB6002E0BB680133BB60BB680D
:10035000FE2BF9D9FB680133FB60FA687B689A428F
:10036000EFD300BF1437BD4680BC704780B582B064
:1003700000AF0346FB71FB79002B68D05E4B012276
:100380001A805D4B04229A705B4B0122DA705A4945
:100390005A4800F0D9FB584B02221A80564B0422CF
:1003A0009A70554B0122DA705349544800F0CCFB47
:1003B000514B04221A80504B04229A704E4B01225A
:1003C000DA704D494D4800F0BFFB4B4B08221A80B4
:1003D000494B04229A70484B0122DA70464947483B
:1003E00000F0B2FB444B10221A80434B04229A7057
:1003F000414B0122DA704049404800F0A5FB3E4BDA
:1004000020221A803C4B04229A703B4B0122DA7066
:1004100039493A4800F098FB374B40221A80364B56
:1004200004229A70344B0122DA703349334800F0C9
:100430008BFB314B80221A802F4B04229A702E4B5B
:100440000122DA702C492D4800F07EFB4FE02A4B48
:1004500001221A80284B01229A702749274800F070
:1004600073FB254B02221A80234B01229A702249EA
:10047000224800F069FB204B04221A801E4B012207
:100480009A701D491D4800F05FFB1B4B08221A8023
:10049000194B01229A701849184800F055FB164B69
:1004A00010221A80144B01229A701349134800F04D
:1004B0004BFB114B20221A800F4B01229A700E49E0
:1004C0000E4800F041FB0C4B40221A800A4B0122DF
:1004D0009A700949094800F037FB074B80221A80BF
:1004E000054B01229A700449044800F02DFB00BF1F
:1004F0000837BD4680BD00BF400000200008014015
:1005000080B500AF1420FFF715FF294B4FF4807220
:100510001A80274B04229A70254B0122DA70244955
:10052000244800F011FB224B4FF400721A80204B3C
:1005300004229A701E4B0122DA701D491D4800F0FA
:1005400003FB1B4B4FF480621A80194B04229A70F4
:10055000174B0122DA701649164800F0F5FA00220E
:100560004FF48071134800F085FB00224FF40071B6
:10057000104800F07FFB00224FF480610D4800F02E
:1005800079FB0120FFF7F2FE0F20FFF7D3FE3820A2
:1005900000F080F800F077F8062000F07BF800F01B
:1005A0001DF900F0EBF800F001F900BF80BD00BFBD
:1005B000400000200008014080B500AF01224FF448
:1005C0008061074800F056FB3220FFF7B3FE00229F
:1005D0004FF48061024800F04DFB00BF80BD00BFBA
:1005E0000008014080B500AF0020FFF7BFFE0122E8
:1005F0004FF400710E4800F03DFB00224FF4807173
:100600000B4800F037FB01E0FFF7D6FF80210848D8
:1006100000F019FB0346002BF6D10120FFF7A6FEE0
:1006200000224FF40071024800F024FB00BF80BD9F
:100630000008014080B582B000AF786039607B6807
:10064000012B0CD13B68002B09DB3B680F2B06DC30
:100650003B68DBB2803BDBB2184600F01BF87B68DE
:10066000022B0CD13B68002B09DB3B680F2B06DC0F
:100670003B68DBB2403BDBB2184600F00BF800BF32
:100680000837BD4680BD80B500AF012000F002F8FC
:1006900000BF80BD80B582B000AF0346FB71FFF79D
:1006A000A1FFFB799BB219460B4800F0FAFA002231
:1006B0004FF40071084800F0DDFA00224FF4807119
:1006C000054800F0D7FA0120FFF734FEFFF774FF6A
:1006D00000BF0837BD4680BD0008014080B582B02C
:1006E00000AF0346FB71FFF77DFFFB799BB2194614
:1006F0000B4800F0D6FA01224FF48071084800F050
:10070000B9FA00224FF40071054800F0B3FA012055
:10071000FFF710FEFFF750FF00BF0837BD4680BD52
:100720000008014080B584B000AF78600023FB6012
:100730001CE0FB680133FB607B685A1C7A601B7805
:100740001846FFF7CBFFFB68102B04D100210220D5
:10075000FFF770FF0AE0FB68202B07D1FFF793FF3C
:1007600000210120FFF766FF0023FB607B681B78F8
:10077000002BDED100BF1037BD4680BD80B500AF75
:10078000094B1B78DBB243F00903DBB21846FFF7D5
:1007900081FF054B1B78DBB243F00103DAB2024B59
:1007A0001A7000BF80BD00BF3C00002080B500AFC4
:1007B000094B1B78DBB243F00A03DBB21846FFF7A4
:1007C00069FF054B1B78DBB243F00203DAB2024B40
:1007D0001A7000BF80BD00BF3C00002080B500AF94
:1007E000094B1B78DBB243F00C03DBB21846FFF772
:1007F00051FF054B1B78DBB243F00403DAB2024B26
:100800001A7000BF80BD00BF3C00002080B582B0E0
:1008100000AF4FF40073BB800423BB710123FB7155
:100820003B1D1946294800F08FF94FF48063BB80C7
:100830000423BB710123FB713B1D1946234800F0C3
:1008400083F94FF40063BB800423BB710123FB7168
:100850003B1D19461D4800F077F94FF48053BB80CB
:100860000423BB710123FB713B1D1946174800F09F
:100870006BF94FF40053BB800423BB710123FB7160
:100880003B1D1946114800F05FF94FF48043BB80CF
:100890000423BB710123FB713B1D19460B4800F07B
:1008A00053F94FF40043BB800423BB710123FB7158
:1008B0003B1D1946054800F047F94FF47E410348B7
:1008C00000F0EFF900BF0837BD4680BD000C0140C5
:1008D00080B582B000AF0346FB71FB799BB25B022F
:1008E0009BB21946034800F0DCF900BF0837BD464B
:1008F00080BD00BF000C014080B400AF074B9B6976
:10090000064A43F004039361044B9B69034A43F096
:100910000803936100BFBD4680BC704700100240D1
:1009200080B485B000AF78600023FB600BE000234B
:10093000BB6002E0BB680133BB60BB68FE2BF9D92A
:10094000FB680133FB60FA687B689A42EFD300BF13
:100950001437BD4680BC704780B588B000AF2F4AC1
:1009600007F1100307CA03C31A800233120C1A706E
:100970002B4A3B1D07CA03C31A800233120C1A709C
:10098000FFF7BAFFFFF7BCFD2648FFF7CBFE0221B9
:100990000220FFF74FFE2448FFF7C4FEFFF736FFA3
:1009A0003220FFF7BDFFFFF76EFE0023FB6114E06E
:1009B00007F11002FB6913441B781846FFF78EFEFF
:1009C0003A1DFB6913441B781846FFF781FF64202A
:1009D000FFF7A6FFFB690133FB61FB690A2BE7DD2B
:1009E000FFF7E2FB3220FFF79BFFFFF74CFE0F48BB
:1009F000FFF798FE3220FFF793FFFFF744FEFFF763
:100A00002DFC0346FB76FB7E412B04D0FB7E184673
:100A1000FFF764FE00E000BFF1E700BF480D0008EB
:100A2000540D0008200D0008280D0008380D00089E
:100A30000D488546AFF300800C480D490D4A002350
:100A400002E0D458C4500433C4188C42F9D30A4A83
:100A50000A4C002301E013600432A242FBD300F0F1
:100A60002FF9FFF779FFFEE70028002000000020A3
:100A700020000020680D0008200000204400002015
:100A8000FEE780B483B000AF0346FB80FB88802B79
:100A900042D0802B11DC082B36D0082B06DC022B31
:100AA0002ED0042B2ED0012B28D047E0202B2FD086
:100AB000402B2FD0102B29D040E0B3F5006F33D05E
:100AC000B3F5006F09DCB3F5007F29D0B3F5806F73
:100AD00028D0B3F5807F21D030E0B3F5005F27D078
:100AE000B3F5005F03DCB3F5805F1FD026E0B3F5FC
:100AF000804F1FD0B3F5004F1ED01FE000231EE033
:100B000004231CE008231AE00C2318E0102316E04D
:100B1000142314E0182312E01C2310E000230EE03D
:100B200004230CE008230AE00C2308E0102306E06D
:100B3000142304E0182302E01C2300E001231846DC
:100B40000C37BD4680BC704790B585B000AF78606B
:100B500039600023BB600023FB733B681B88FF2BBD
:100B600001D87B6801E07B680433BB603B681B886D
:100B70001846FFF786FF03461A460F239340DA43D1
:100B8000BB681B681A40BB681A603B689B78042BE3
:100B90000BD03B689B78052B07D03B689B78062BD6
:100BA00003D03B689B78072B0ED13B689B78043BB6
:100BB0009B005AB23B68DB785BB213435BB2DBB29B
:100BC00003F00F03FB732CE03B689B78002B03D0F2
:100BD0003B689B78012B07D13B689B789B00DBB27D
:100BE00003F00F03FB731CE03B689B78012B02D1E1
:100BF0000423FB7315E00823FB733B689B78022BEF
:100C000007D17B68DB683A6812881A437B68DA6030
:100C100007E07B68DB683A681288D2431A407B6839
:100C2000DA60FC7B3B681B881846FFF72AFF034607
:100C300004FA03F2BB681B681A43BB681A6000BF62
:100C40001437BD4690BD80B485B000AF78600B46C8
:100C50007B807B689A687B881340002B02D001233D
:100C6000FB7301E00023FB73FB7B18461437BD4682
:100C700080BC704780B483B000AF78600B467B8047
:100C800013467B707B78002B03D07A887B681A61CF
:100C900002E07A887B685A6100BF0C37BD4680BC91
:100CA000704780B483B000AF78600B467B807A8851
:100CB0007B68DA6000BF0C37BD4680BC704700001F
:100CC00070B500250C4E0D4CA41BA410A54209D1F3
:100CD00000F01AF800250A4E0A4CA41BA410A542E5
:100CE00005D170BD56F8253098470135EEE756F826
:100CF000253098470135F2E7600D0008600D0008C7
:100D0000600D0008640D0008F8B500BFF8BC08BC11
:100D10009E467047F8B500BFF8BC08BC9E467047B9
:100D20004845592121000000546869732049732007
:100D30004D696E61210000004B6579706164204946
:100D4000732052656164790030313233343536377F
:100D5000383930000179243058120219001001008E
:040D60005501000831
:040D64003101000851
:100D68003738392F3435362A3132332D43303D2B3D
:100D7800010002000800100020004000800000016F
:0400000508000A31B4
:00000001FF
