:100000000C942A000C9447000C9447000C94470071
:100010000C9447000C9447000C9447000C94470044
:100020000C9447000C9447000C9447000C94470034
:100030000C9447000C9447000C9447000C94470024
:100040000C9447000C9447000C9447000C94470014
:100050000C94470011241FBECFE5D8E0DEBFCDBF12
:1000600010E0A0E6B0E0ECE7F2E002C005900D92EF
:10007000A037B107D9F720E0A0E7B0E001C01D929A
:10008000A137B207E1F70E942C010C943C010C94BB
:1000900000008FE081BB82B38FEF82BB089540E008
:1000A00050E050C0141615066CF422B3BA0161502A
:1000B000710981E090E002C0880F991F6A95E2F70C
:1000C000822B82BB82B361E070E0042E02C0660F17
:1000D000771F0A94E2F7962F9095892382BB20E040
:1000E00030E025C080B382958F7090E0022E02C070
:1000F000959587950A94E2F780FD17C080B38295A5
:100100008F7090E0022E02C0959587950A94E2F7D1
:1001100080FFF4CF440F551F440F551F405A5F4FC7
:10012000FA01E20FF31F808108952F5F3F4F2430C3
:100130003105C4F24330510519F482B3682B62BB18
:100140004F5F5F4F443051050CF4ACCF81E408950C
:1001500088B3886088BB2FE788E391E02150804016
:100160009040E1F700C0000088B3877F88BB089506
:100170008AB31ABA88B3846088BB88B38D7F88BB82
:100180000E94A8008AB38FEF8ABB88B38B7F88BB9D
:100190000895CF93C82F0E94B80088B3897F88BB89
:1001A000CBBB0E94A800CF91089581E00E94C900B6
:1001B0000895CF93C82F0E94B80088B3826088BB8F
:1001C00088B38B7F88BBCBBB0E94A800CF910895DA
:1001D0008091700089600E94C900809170008160E8
:1001E000809370000895809170008A600E94C90019
:1001F00080917000826080937000089580917000FB
:100200008C600E94C90080917000846080937000AF
:1002100008958FE39CE90197F1F700C0000087B3D0
:100220008E6087BB88B3817F88BB8FEF8ABB8FE3EB
:100230009CE90197F1F700C0000088E30E94C90023
:100240000E94D50086E00E94C9000E94FE000E9424
:10025000E8000E94F30008950E9409010E944900ED
:100260000E944F008134E1F3833419F40E94D500D9
:0C027000F7CF0E94D900F4CFF894FFCF24
:10027C003738392F3435362A3132332D43303D2B34
:00000001FF
